{"abi":[{"type":"function","name":"distributePrizes","inputs":[],"outputs":[],"stateMutability":"nonpayable"},{"type":"function","name":"getPrevWinners","inputs":[],"outputs":[{"name":"","type":"address[]","internalType":"address[]"}],"stateMutability":"view"},{"type":"function","name":"guessNumber","inputs":[{"name":"guess","type":"uint256","internalType":"uint256"}],"outputs":[],"stateMutability":"nonpayable"},{"type":"function","name":"playerAddresses","inputs":[{"name":"","type":"uint256","internalType":"uint256"}],"outputs":[{"name":"","type":"address","internalType":"address"}],"stateMutability":"view"},{"type":"function","name":"players","inputs":[{"name":"","type":"address","internalType":"address"}],"outputs":[{"name":"attempts","type":"uint256","internalType":"uint256"},{"name":"active","type":"bool","internalType":"bool"}],"stateMutability":"view"},{"type":"function","name":"previousWinners","inputs":[{"name":"","type":"uint256","internalType":"uint256"}],"outputs":[{"name":"","type":"address","internalType":"address"}],"stateMutability":"view"},{"type":"function","name":"register","inputs":[],"outputs":[],"stateMutability":"payable"},{"type":"function","name":"totalPrizePool","inputs":[],"outputs":[{"name":"","type":"uint256","internalType":"uint256"}],"stateMutability":"view"},{"type":"function","name":"winners","inputs":[{"name":"","type":"uint256","internalType":"uint256"}],"outputs":[{"name":"","type":"address","internalType":"address"}],"stateMutability":"view"},{"type":"event","name":"GuessResult","inputs":[{"name":"player","type":"address","indexed":true,"internalType":"address"},{"name":"success","type":"bool","indexed":false,"internalType":"bool"},{"name":"correctNumber","type":"uint256","indexed":false,"internalType":"uint256"}],"anonymous":false},{"type":"event","name":"PlayerRegistered","inputs":[{"name":"player","type":"address","indexed":true,"internalType":"address"}],"anonymous":false},{"type":"event","name":"PrizesDistributed","inputs":[{"name":"winners","type":"address[]","indexed":false,"internalType":"address[]"},{"name":"prizeAmount","type":"uint256","indexed":false,"internalType":"uint256"}],"anonymous":false}],"bytecode":{"object":"0x608060405234801561000f575f80fd5b506115498061001d5f395ff3fe608060405260043610610085575f3560e01c80637ce52eb6116100585780637ce52eb614610135578063a2fb11751461014b578063b438d01814610187578063e2d760c1146101af578063e2eb41ff146101d957610085565b806315c6aee2146100895780631aa3a008146100c5578063398ab9a7146100cf5780634586a625146100f9575b5f80fd5b348015610094575f80fd5b506100af60048036038101906100aa9190610c4e565b610216565b6040516100bc9190610cb8565b60405180910390f35b6100cd610251565b005b3480156100da575f80fd5b506100e3610462565b6040516100f09190610ce0565b60405180910390f35b348015610104575f80fd5b5061011f600480360381019061011a9190610c4e565b610468565b60405161012c9190610cb8565b60405180910390f35b348015610140575f80fd5b506101496104a3565b005b348015610156575f80fd5b50610171600480360381019061016c9190610c4e565b610780565b60405161017e9190610cb8565b60405180910390f35b348015610192575f80fd5b506101ad60048036038101906101a89190610c4e565b6107bb565b005b3480156101ba575f80fd5b506101c3610add565b6040516101d09190610db0565b60405180910390f35b3480156101e4575f80fd5b506101ff60048036038101906101fa9190610dfa565b610b68565b60405161020d929190610e3f565b60405180910390f35b60018181548110610225575f80fd5b905f5260205f20015f915054906101000a900473ffffffffffffffffffffffffffffffffffffffff1681565b66470de4df820000341461029a576040517f08c379a000000000000000000000000000000000000000000000000000000000815260040161029190610ee6565b60405180910390fd5b5f803373ffffffffffffffffffffffffffffffffffffffff1673ffffffffffffffffffffffffffffffffffffffff1681526020019081526020015f206001015f9054906101000a900460ff1615610326576040517f08c379a000000000000000000000000000000000000000000000000000000000815260040161031d90610f4e565b60405180910390fd5b604051806040016040528060038152602001600115158152505f803373ffffffffffffffffffffffffffffffffffffffff1673ffffffffffffffffffffffffffffffffffffffff1681526020019081526020015f205f820151815f01556020820151816001015f6101000a81548160ff021916908315150217905550905050600133908060018154018082558091505060019003905f5260205f20015f9091909190916101000a81548173ffffffffffffffffffffffffffffffffffffffff021916908373ffffffffffffffffffffffffffffffffffffffff1602179055503460025f8282546104169190610f99565b925050819055503373ffffffffffffffffffffffffffffffffffffffff167f8cd3331e32cec677d80b82cf0f71496605e7ed6ff864a3ccedc7d5d11d838c8360405160405180910390a2565b60025481565b60048181548110610477575f80fd5b905f5260205f20015f915054906101000a900473ffffffffffffffffffffffffffffffffffffffff1681565b5f600380549050116104ea576040517f08c379a00000000000000000000000000000000000000000000000000000000081526004016104e190611016565b60405180910390fd5b5f6003805490506002546104fe9190611061565b90505f5b60038054905081101561066b575f6003828154811061052457610523611091565b5b905f5260205f20015f9054906101000a900473ffffffffffffffffffffffffffffffffffffffff1690505f8173ffffffffffffffffffffffffffffffffffffffff1684604051610573906110eb565b5f6040518083038185875af1925050503d805f81146105ad576040519150601f19603f3d011682016040523d82523d5f602084013e6105b2565b606091505b50509050806105f6576040517f08c379a00000000000000000000000000000000000000000000000000000000081526004016105ed90611149565b60405180910390fd5b600482908060018154018082558091505060019003905f5260205f20015f9091909190916101000a81548173ffffffffffffffffffffffffffffffffffffffff021916908373ffffffffffffffffffffffffffffffffffffffff1602179055505050808061066390611167565b915050610502565b507fcc9c73fa1becf5191855c703cc6e2a44012c794c9dcd6516a09095bee245962760038260405161069e92919061128e565b60405180910390a160035f6106b39190610bde565b60015f6106c09190610bde565b5f6002819055505f5b60018054905081101561077c575f80600183815481106106ec576106eb611091565b5b905f5260205f20015f9054906101000a900473ffffffffffffffffffffffffffffffffffffffff1673ffffffffffffffffffffffffffffffffffffffff1673ffffffffffffffffffffffffffffffffffffffff1681526020019081526020015f205f8082015f9055600182015f6101000a81549060ff02191690555050808061077490611167565b9150506106c9565b5050565b6003818154811061078f575f80fd5b905f5260205f20015f915054906101000a900473ffffffffffffffffffffffffffffffffffffffff1681565b600181101580156107cd575060098111155b61080c576040517f08c379a000000000000000000000000000000000000000000000000000000000815260040161080390611306565b60405180910390fd5b5f803373ffffffffffffffffffffffffffffffffffffffff1673ffffffffffffffffffffffffffffffffffffffff1681526020019081526020015f206001015f9054906101000a900460ff16610897576040517f08c379a000000000000000000000000000000000000000000000000000000000815260040161088e9061136e565b60405180910390fd5b5f805f3373ffffffffffffffffffffffffffffffffffffffff1673ffffffffffffffffffffffffffffffffffffffff1681526020019081526020015f205f015411610917576040517f08c379a000000000000000000000000000000000000000000000000000000000815260040161090e906113d6565b60405180910390fd5b5f610920610b93565b9050808203610a3557600333908060018154018082558091505060019003905f5260205f20015f9091909190916101000a81548173ffffffffffffffffffffffffffffffffffffffff021916908373ffffffffffffffffffffffffffffffffffffffff1602179055503373ffffffffffffffffffffffffffffffffffffffff167ffdaa48b698c1fdb6a0c62b261be16f31a6f7755731c71ba3e78da8ee858fc5b66001836040516109d29291906113f4565b60405180910390a25f805f3373ffffffffffffffffffffffffffffffffffffffff1673ffffffffffffffffffffffffffffffffffffffff1681526020019081526020015f206001015f6101000a81548160ff021916908315150217905550610a86565b3373ffffffffffffffffffffffffffffffffffffffff167ffdaa48b698c1fdb6a0c62b261be16f31a6f7755731c71ba3e78da8ee858fc5b65f83604051610a7d9291906113f4565b60405180910390a25b5f803373ffffffffffffffffffffffffffffffffffffffff1673ffffffffffffffffffffffffffffffffffffffff1681526020019081526020015f205f015f815480929190610ad49061141b565b91905055505050565b60606004805480602002602001604051908101604052809291908181526020018280548015610b5e57602002820191905f5260205f20905b815f9054906101000a900473ffffffffffffffffffffffffffffffffffffffff1673ffffffffffffffffffffffffffffffffffffffff1681526020019060010190808311610b15575b5050505050905090565b5f602052805f5260405f205f91509050805f015490806001015f9054906101000a900460ff16905082565b5f60016009424433604051602001610bad939291906114a7565b604051602081830303815290604052805190602001205f1c610bcf91906114e3565b610bd99190610f99565b905090565b5080545f8255905f5260205f2090810190610bf99190610bfc565b50565b5b80821115610c13575f815f905550600101610bfd565b5090565b5f80fd5b5f819050919050565b610c2d81610c1b565b8114610c37575f80fd5b50565b5f81359050610c4881610c24565b92915050565b5f60208284031215610c6357610c62610c17565b5b5f610c7084828501610c3a565b91505092915050565b5f73ffffffffffffffffffffffffffffffffffffffff82169050919050565b5f610ca282610c79565b9050919050565b610cb281610c98565b82525050565b5f602082019050610ccb5f830184610ca9565b92915050565b610cda81610c1b565b82525050565b5f602082019050610cf35f830184610cd1565b92915050565b5f81519050919050565b5f82825260208201905092915050565b5f819050602082019050919050565b610d2b81610c98565b82525050565b5f610d3c8383610d22565b60208301905092915050565b5f602082019050919050565b5f610d5e82610cf9565b610d688185610d03565b9350610d7383610d13565b805f5b83811015610da3578151610d8a8882610d31565b9750610d9583610d48565b925050600181019050610d76565b5085935050505092915050565b5f6020820190508181035f830152610dc88184610d54565b905092915050565b610dd981610c98565b8114610de3575f80fd5b50565b5f81359050610df481610dd0565b92915050565b5f60208284031215610e0f57610e0e610c17565b5b5f610e1c84828501610de6565b91505092915050565b5f8115159050919050565b610e3981610e25565b82525050565b5f604082019050610e525f830185610cd1565b610e5f6020830184610e30565b9392505050565b5f82825260208201905092915050565b7f4d7573742073656e642065786163746c7920302e30322045544820746f2072655f8201527f6769737465720000000000000000000000000000000000000000000000000000602082015250565b5f610ed0602683610e66565b9150610edb82610e76565b604082019050919050565b5f6020820190508181035f830152610efd81610ec4565b9050919050565b7f506c6179657220616c72656164792072656769737465726564000000000000005f82015250565b5f610f38601983610e66565b9150610f4382610f04565b602082019050919050565b5f6020820190508181035f830152610f6581610f2c565b9050919050565b7f4e487b71000000000000000000000000000000000000000000000000000000005f52601160045260245ffd5b5f610fa382610c1b565b9150610fae83610c1b565b9250828201905080821115610fc657610fc5610f6c565b5b92915050565b7f4e6f2077696e6e65727320746f207265776172640000000000000000000000005f82015250565b5f611000601483610e66565b915061100b82610fcc565b602082019050919050565b5f6020820190508181035f83015261102d81610ff4565b9050919050565b7f4e487b71000000000000000000000000000000000000000000000000000000005f52601260045260245ffd5b5f61106b82610c1b565b915061107683610c1b565b92508261108657611085611034565b5b828204905092915050565b7f4e487b71000000000000000000000000000000000000000000000000000000005f52603260045260245ffd5b5f81905092915050565b50565b5f6110d65f836110be565b91506110e1826110c8565b5f82019050919050565b5f6110f5826110cb565b9150819050919050565b7f4661696c656420746f2073656e64207072697a650000000000000000000000005f82015250565b5f611133601483610e66565b915061113e826110ff565b602082019050919050565b5f6020820190508181035f83015261116081611127565b9050919050565b5f61117182610c1b565b91507fffffffffffffffffffffffffffffffffffffffffffffffffffffffffffffffff82036111a3576111a2610f6c565b5b600182019050919050565b5f81549050919050565b5f819050815f5260205f209050919050565b5f815f1c9050919050565b5f73ffffffffffffffffffffffffffffffffffffffff82169050919050565b5f611206611201836111ca565b6111d5565b9050919050565b5f61121882546111f4565b9050919050565b5f600182019050919050565b5f611235826111ae565b61123f8185610d03565b935061124a836111b8565b805f5b838110156112815761125e8261120d565b6112688882610d31565b97506112738361121f565b92505060018101905061124d565b5085935050505092915050565b5f6040820190508181035f8301526112a6818561122b565b90506112b56020830184610cd1565b9392505050565b7f4775657373206d757374206265206265747765656e203120616e6420390000005f82015250565b5f6112f0601d83610e66565b91506112fb826112bc565b602082019050919050565b5f6020820190508181035f83015261131d816112e4565b9050919050565b7f596f7520617265206e6f742072656769737465726564000000000000000000005f82015250565b5f611358601683610e66565b915061136382611324565b602082019050919050565b5f6020820190508181035f8301526113858161134c565b9050919050565b7f596f752068617665207573656420757020796f757220617474656d70747300005f82015250565b5f6113c0601e83610e66565b91506113cb8261138c565b602082019050919050565b5f6020820190508181035f8301526113ed816113b4565b9050919050565b5f6040820190506114075f830185610e30565b6114146020830184610cd1565b9392505050565b5f61142582610c1b565b91505f820361143757611436610f6c565b5b600182039050919050565b5f819050919050565b61145c61145782610c1b565b611442565b82525050565b5f8160601b9050919050565b5f61147882611462565b9050919050565b5f6114898261146e565b9050919050565b6114a161149c82610c98565b61147f565b82525050565b5f6114b2828661144b565b6020820191506114c2828561144b565b6020820191506114d28284611490565b601482019150819050949350505050565b5f6114ed82610c1b565b91506114f883610c1b565b92508261150857611507611034565b5b82820690509291505056fea2646970667358221220ac83bbcb3fb01a4b13ed0fd34d00499343d51a370b8da25d33473cbefae244cc64736f6c63430008140033","linkReferences":{}},"methodIdentifiers":{"distributePrizes()":"7ce52eb6","getPrevWinners()":"e2d760c1","guessNumber(uint256)":"b438d018","playerAddresses(uint256)":"15c6aee2","players(address)":"e2eb41ff","previousWinners(uint256)":"4586a625","register()":"1aa3a008","totalPrizePool()":"398ab9a7","winners(uint256)":"a2fb1175"},"id":21}